:10000000803112288F31A52F7E1480310B1F1028CC
:100010002100911C10282000911C10288A31BE223A
:100020007E10090080311428063084008430850059
:10003000F0308600213087000230FF0000308A3126
:10004000B2228031E13084008A308500D2308600CF
:10005000003087001C30FF018A31B2228031043029
:1000600084008C30850020308600013087003230DB
:10007000FF018A31B2228031B3308400873085009D
:10008000A0308600013087004A30FF018A31B22259
:100090008031363084008C3085002030860002307C
:1000A00087004A30FF018A31B22280316330FA0181
:1000B000FB01FC018400003085000B30FE000030A5
:1000C000FF008A31A6228031A030840000308500F4
:1000D0003230FE000030FF008A31A62280317E10CF
:1000E000200072288E31652680318B170B17200077
:1000F000E101E20120006108B03E86008701810134
:100100006135A43E86000030C03FC13F6108673EB4
:100110008600810161087A3E860081016135A03E3A
:1001200086000030C03FC13FE10A0319E20A6208BD
:10013000803AD20080305202031DA02802306102B2
:10014000031C7A2828302100AA00AB0120001830B7
:10015000DD01DE01D700D801E92180310030CD2159
:10016000DC004030B701B800B9005C088C31F124E4
:1001700080312808BA002908BB002A08BC006A217F
:100180003708C6003808C7003908C8004030B70132
:10019000B800B900A801A901AA005908AB005A0883
:1001A000AC005B08AD008D31092580312808BA000C
:1001B0002908BB002A08BC006A213708C900380892
:1001C000CA003908CB008D31732580314608D9002B
:1001D0004708DA004808DB005C08803A7F3E031CD1
:1001E000152955085604031D1529A001A101A201D6
:1001F0005908A3005A08A4005B08A5008B31A92365
:10020000803103181529D501D50AD6016008803A36
:10021000D2005808803A5202031D102957085F0285
:10022000031C15292000DF01E0010030D9218031B5
:10023000003A0319652953085404031DAC28D3015F
:10024000D30AD401DF0A0319E00A6008803AD20019
:1002500080305202031D2E2901305F02031833291A
:100260002000DF01E00120006008803AD200580839
:10027000803A5202031D3E2957085F02031C43299E
:100280002000DF01E00120005F08203E86000130F1
:1002900087000108A0005D088B31D5238031DD0A7D
:1002A0000319DE0A5E08803AD20080305202031D34
:1002B0005B2902305D02031C60292000DD01DE01A4
:1002C0002000D901DA01DB01AC28D301D401D5012A
:1002D000D601AC283A08BD003B08BE003C08BF0070
:1002E00003103E0D3F0DC4004408031D7B29B701D8
:1002F000B801B90108003708BD003808BE00390848
:10030000BF0003103E0D3F0DC5004508031D8C299D
:10031000B701B801B90108008930C101C201C301A8
:100320004507BD00C4023C08C5003908C506803039
:10033000C5051830BB17BC01B817B901C000C135DD
:10034000C20DC30D39083C02031DAC2938083B021D
:10035000031DAC2937083A02031CB5293708BA0235
:100360003808BB3B3908BC3B4114BA35BB0DBC0D4A
:10037000C00B9F294108A0004208A1004308A20029
:100380004408A3004508A4008E3127262008B700A2
:100390002108B8002208B9000800A000023020029D
:1003A00003180034200EF039BB3E86008701010897
:1003B00008002000A0000230200203180034200EA4
:1003C000F039B43E8600023087010106031901347A
:1003D0000034ED01ED0A68238031003A031908006A
:1003E000F7218E31C42680310424ED010800B301C9
:1003F0003308012280310230B30A330203180800A7
:10040000F829B100310EF039B23EB200320A86004E
:100410008701010836238031003A03190800320AA7
:1004200086008701010835238031003A031908004E
:100430003208A22280313208392280313208023E4D
:1004400086000330870101023208031C2B2A860034
:10045000010814233208AC003208023E86008701EE
:100460000135D23E8600413F8A00403F0A0082317A
:100470000800AE00053E86008701403FA000413FD6
:10048000A100423FA200433FA3000430A336A20CC8
:10049000A10CA00C890B462A2E08033E860087017A
:1004A000403FA400413FA5002408A6002508A7005E
:1004B000A801A9012008A6022108A73B2208A83B01
:1004C0002308A93B2908AD002808AC002708AB0089
:1004D0002608AA002E080F3E8600010A732AAD37AF
:1004E000AC0CAB0CAA0C890B6F2AAD1B892A2D080A
:1004F000031D842A2C08031D842A2B08031D842A2B
:1005000080302A02031C892A7F30AA00AB01AC018B
:10051000AD01AD1F9B2A80302A02FF302B3BFF30FC
:100520002C3BFF302D3B03189B2AFF30AD00AC0065
:10053000AB008030AA002E08093E860087012A08F9
:1005400081000800A9008B1FD32A8B13033E86006D
:100550008701403FA700413FA800A836A70CA83656
:10056000A70C2908033E860027088102413128088C
:10057000813B7F31290A8600870101080023230877
:10058000A7002408A800A836A70CA836A70C29089D
:10059000033E860087012708810741312808813DF5
:1005A0007F318B1708002908033E86008701403FF2
:1005B000A700413FA800A836A70CA836A70C290819
:1005C000033E86002708810241312808813B7F31A4
:1005D000290A86008701010800232308A7002408B0
:1005E000A800A836A70CA836A70C2908033E860049
:1005F00087012708810741312808813D7F310800A4
:10060000A600023026020318112B0930A00026088C
:100610004523E23E86008701403FA300413FA400FE
:100620000800A301A4010800A000200EF039B23E8A
:10063000A100023E8600870181012108053E860057
:100640000030C03FC13FC23FC33F21080A3E860081
:100650000030C03FC13F21080C3E86000030C03F43
:10066000C13F210A86000108032C0134A300023097
:100670002302031800340930A00023084523E43E78
:1006800086008701010C01390800A200A1012008A1
:100690002218A107A0352008A218A107A03520081C
:1006A0002219A107A0352008A219A107A03520080A
:1006B000221AA107A0352008A21AA107A0352008F8
:1006C000221BA107A0352008A21BA10721080800B2
:1006D000B601360875238031003A031D003402301C
:1006E000B60A360203180134692BB3000930A000A2
:1006F000330845238031DC3EB500A1238031B400AE
:10070000912B35088A31CB2280313508A000200892
:10071000083E8600870181143308A000022480313E
:100720009F2B3408003A0319812BFD3A03199F2BA4
:10073000033A03199F2B013A03199F2B9F2B34086F
:100740000800B2000530B1003208E9238031003AD8
:1007500003190034AE2BB10BAE2BFC3432088F31B1
:1007600017278031003A031DAB2B6408A1006308F2
:10077000A0003208063E86008701403FAD00413FA1
:10078000AE002D08A0022E08A13BF42380313208D0
:10079000053E860087010108AF00B001AF35B00DFE
:1007A000AF35B00D21083002031DD82B20082F02D1
:1007B00032080318E22BA0002008083E86008701BB
:1007C00001150034A0002008083E860087010111B1
:1007D0000034A0002008031900342008083E8600D9
:1007E0008701010801390800A11F08002009A200A3
:1007F0002109A300A20A0319A30A2208A0002308C2
:10080000A1000800080008008B317D2BFF34FC3468
:10081000FA34F734F534F334F034EE34EB34E934AD
:10082000E734E434E234E034DE34DB34D934D73432
:10083000D534D334D134CF34CD34CB34C934C734A8
:10084000C534C334C134BF34BD34BB34B934B73418
:10085000B634B434B234B034AE34AD34AB34A9347D
:10086000A834A634A434A334A1349F349E349C34D9
:100870009B3499349834963495349334923490342C
:100880008F348D348C348B34893488348634853479
:1008900084348234813480347F347D347C347B34BE
:1008A0007A347834773476347534743473347134FC
:1008B00070346F346E346D346C346B346A34693434
:1008C0006834673466346534643463346234613464
:1008D00060345F345E345D345C345B345A34593494
:1008E00058345734573456345534543453345234BE
:1008F0005234513450344F344E344E344D344C34E1
:100900004B344B344A344934483448344734463401
:10091000453445344434433443344234413441341F
:10092000403440343F343E343E343D343C343C3437
:100930003B343B343A34393439343834383437344E
:100940003734363436343534353434343334333460
:1009500032343234313431343034303430342F3472
:100960002F342E342E342D342D342C342C342B347F
:100970002B342B342A342A3429342834283427348D
:1009800027342634263425342534243423342334A0
:10099000223422342134213420341F341F341E34B5
:1009A0001E341D341D341C341C341B341A341A34C8
:1009B00019341934183418341734163416341534DD
:1009C00015341434143413341334123411341134F0
:1009D000103410340F340F340E340D340D340C3405
:1009E0000C340B340B340A340A3409340834083418
:1009F000073407340634063405340434043403342D
:100A00000334023402340134013400347F3482343C
:100A1000853488348B348E349134943498349B34B8
:100A20009E34A134A434A734AA34AD34B034B334E2
:100A3000B534B834BB34BE34C134C334C634C8341E
:100A4000CB34CE34D034D234D534D734D934DB346B
:100A5000DE34E034E234E434E634E734E934EB34D1
:100A6000ED34EE34F034F134F234F434F534F63459
:100A7000F734F834F934FA34FB34FC34FC34FD3404
:100A8000FD34FE34FE34FE34FE34FE34FE34FE34D7
:100A9000FE34FE34FE34FD34FD34FC34FC34FB34CF
:100AA000FA34FA34F934F834F734F634F434F334ED
:100AB000F234F034EF34ED34EC34EA34E834E73433
:100AC000E534E334E134DF34DD34DA34D834D63499
:100AD000D434D134CF34CC34CA34C734C534C2341E
:100AE000BF34BC34BA34B734B434B134AE34AB34BC
:100AF000A834A534A2349F349C349934963493346A
:100B000090348D348A348634833480347D347A341E
:100B10007734733470346D346A34673464346134D8
:100B20005E345B345834553452344F344C34493489
:100B30004634433441343E343B3438343634333431
:100B400031342E342C3429342734253423342034C2
:100B50001E341C341A34183416341534133411343A
:100B600010340E340D340B340A340934073406348F
:100B700005340434033403340234013401340034C2
:100B800000340034003400340034003400340034C5
:100B900000340034003400340034013401340234B1
:100BA00003340434053406340734083409340B3470
:100BB0000C340D340F34103412341434163417340A
:100BC00019341B341D341F34223424342634283481
:100BD0002B342D342F343234353437343A343C34DA
:100BE0003F344234453448344A344D34503453341D
:100BF000563459345C345F346234653469346C344F
:100C00006F347234753478347B347E342C080A3E69
:100C100086008701403FAD00413FAE0003302E0209
:100C2000E83003192D022C08031C212E8600010830
:100C30008331142386312C08860087010108A00027
:100C40002E2F093E860087010108803AAD002C084E
:100C50000E3E86000137803AAD02031808002C08CA
:100C6000023E86008101810A2C080A3E860000307F
:100C7000C03FC13F2C0886000108A0002E2F2C0881
:100C80000A3E86008701403FAD00413FAE00003084
:100C90002E02093003192D022C080318522E922619
:100CA0008631542E2F2786312C080A3E86000130CB
:100CB0008701810741310318810A2C080A3E86000A
:100CC0008701403FAD00413FAE0000302E021030A2
:100CD00003192D02031C08002C08053E8600403F26
:100CE000AD00413FAE00423FAF00433FB000043093
:100CF000B036AF0CAE0CAD0C890B782E2C08033E31
:100D0000860087012D08C03F2E08C13F2C08023EF7
:100D100086008101810A2C080A3E86000030C03F0F
:100D2000C13F0800AB002B0A860087010108833110
:100D3000002386312308A7002408A800A901AA01DE
:100D40002B08053E860087012708C03F2808C13FC1
:100D50002908C23F2A08C33F2B08053E86000430FD
:100D600081354131810D4131810D4131810D7D311F
:100D7000890BB02E08002C08093E86008701010867
:100D8000803A8A3E2C080318E82E0A3E860001307D
:100D9000810741310318810A2C080A3E8600870129
:100DA000403FAD00413FAE0000302E02213003191C
:100DB0002D022C08031C0F2F0A3E86000030C03F76
:100DC000C13F2C08860001088331142386310E2F81
:100DD0000E3E860087010108803AAD002C08093ECE
:100DE00086000108803AAD022C080318082F023E45
:100DF0008600023081002C080A3E86000030C03F89
:100E0000C13F2C0886000108A0002E2786310E2F36
:100E10000A3E860000308701C03FC13F2C080C3ECF
:100E2000860001308701810741310318810A2C08AF
:100E30000C3E86008701403FAD00413FAE000030D0
:100E40002E02213003192D02031C08002C080C3E31
:100E500086000030C03FC13F2C082F2F0800A6009D
:100E60008B1F732F8B13053E86008701403FA00028
:100E7000413FA100423FA200433FA3000430A336FC
:100E8000A20CA10CA00C890B3F2F2608053E860062
:100E900087012008810241312108813B413122082C
:100EA000813B41312308813B7D312608033E86008A
:100EB0008701403FA000413FA1002008A200210877
:100EC000A300A401A5012608053E8600220881078B
:100ED00041312308813D41312408813D41312508BC
:100EE000813D8B1708002608053E86008701403F9C
:100EF000A000413FA100423FA200433FA3000430B5
:100F0000A336A20CA10CA00C890B802F2608053E4D
:100F1000860087012008810241312108813B41314F
:100F20002208813B41312308813B7D312608033E65
:100F300086008701403FA000413FA1002008A20099
:100F40002108A300A401A5012608053E8600220869
:100F5000810741312308813D41312408813D4131E0
:100F60002508813D08000234023402340234023480
:100F700002340234033403340334033403340434BA
:100F8000043404340434053405340534063406349A
:100F900006340734073408340834093409340A3471
:100FA0000A340B340C340C340D340E340F3410343A
:100FB00011341234133414341534163418341934EB
:100FC0001B341C341E342034223424342634283478
:100FD0002B342D3430343334363439343D344034CA
:100FE000443448344C34513456345B3460346634C1
:0A0FF0006C3473347A348134893490
:081000008F31892F8F31902FF1
:10154C006400013080010131FE020030FF3B7F0856
:10155C007E0403190034A72AFE0012001E0001307D
:10156C00FE020030FF3B7F087E0403190034B32ACF
:10157C002100280829040319C82A29088A002808E8
:10158C000A008A31200091100800A0008B1FD82A75
:10159C008B13063E860087016308C03F6408C13F79
:1015AC008B1708002008063E860087016308C03FA1
:1015BC006408C13F08003F340634BB34063406349B
:1015CC0006345D340B341D340B3400341D340B34B1
:1015DC005D340B3420340034003400340134FD34D9
:1015EC000A343D340B3420340034003400342200EF
:1015FC000E14210011309D000330890B032B0000C9
:10160C008E308400003085000C308600013087005D
:10161C00153080149D0001150032003200002100AD
:10162C009D140032000022008E148010080022004D
:10163C008E14210015309D000330890B232B0000E4
:10164C008E308400003085000C308600013087001D
:10165C00113000149D0001150032003200002100F1
:10166C009D140032000022000E140010080022000D
:10167C000E10210011309D000330890B432B00000C
:10168C008E308400003085000C30860001308700DD
:10169C00153080149D000111003200320000210031
:1016AC009D140032000022008E10801008002200D1
:1016BC008E10210015309D000330890B632B000028
:1016CC008E308400003085000C308600013087009D
:1016DC00113000149D000111003200320000210075
:1016EC009D140032000022000E1000100800A3010F
:1016FC00230EF039B23E89238B310230A30A230228
:10170C00031808007E2BA200023E860002308701DF
:10171C000106031D080022080A3E860001308107DD
:10172C0041310318810A22080A3E860087011600FF
:10173C000104031D080022080A3E8600FF308701C1
:10174C00C03FC13F0800A21FB82B2008003CA000DE
:10175C002108031C210F003CA1002208031C220FAE
:10176C00803CA200A51FC72B2308003CA300240823
:10177C00031C240F003CA4002508031C250F803CEF
:10178C00A5008030A206A50625082202031D08002C
:10179C0024082102031D0800230820020800A100D0
:1017AC00AE3E860087012008A03E840001308500F3
:1017BC00000881002108AC3E86002008203E8400F1
:1017CC0002308500000881002135A43E86000030DF
:1017DC00C03FC13F2108673E860081012108B03E11
:1017EC0086008101810A2135A03E86000030C03F71
:1017FC00C13F21087A3E860081010800033405347C
:10180C0008340A340C340F341134143416341834AC
:10181C001B341D34203422342434273429342C3402
:10182C002E3430343334353438343A340034AC3428
:10183C001A34BC349534A934FC348F3469348C3468
:10184C00FE34C234DF34003439343D344034443453
:10185C004834513456345B34603466346C34003460
:10186C0006342534463468348D34B434DD340834CD
:10187C00373467349B34D2340C344A348B34D03400
:10188C0019346734B93410346D34CE343634A4344E
:10189C00183493341634A0343234CE3472342034A9
:1018AC00D9349C346B3447342F3426342B343F34A6
:1018BC0064349B34E4344034B1343834D6348D340D
:1018CC005E344B3455347E34C8343534C7347F34AD
:1018DC0062347034AC341A34BC349634AA34FC34CC
:1018EC00903469348D34FE34C334DF34583434349A
:1018FC0078342B347908673E860087010108031D74
:10190C009B2C7935A43E8600403FF500413FF60004
:10191C00003076028130031975020318A02C790867
:10192C00673E86002A088100A02C7908673E860055
:10193C00870181032E08FA072C08A0070318A10AB7
:10194C0021087A072000E50021002F08FB072D084D
:10195C00A2070318A30A23087B0726072000E6002A
:10196C00FF30F0006608D9248C31F03E860022301E
:10197C008701873D6508F03E840022308501853D56
:10198C0000080107F500F601F60DF7007608F800DF
:10199C00F6007708F500F636F50C7508D52CF00036
:1019AC00220099000800F2000830F300F4017208DC
:1019BC00F1000730F136890BE02C74357104F4001A
:1019CC00F23570087402031CED2C7008F402F30B52
:1019DC00DD2C74080800AD00AC01AD1FF92CAD096D
:1019EC00AD0AAC01AC0A2D08A0008E30A101A201F9
:1019FC00A3002C08A40027262008A8002108A90071
:101A0C002208AA0008002808AE002908AF002A08FE
:101A1C00B00003102F0D300DB1003108031D1A2D2D
:101A2C00A801A901AA0108002B08AE002C08AF00E0
:101A3C002D08B00003102F0D300DB6003608031D15
:101A4C002B2DA801A901AA01080036087B3EB1077D
:101A5C002A08B6002D08B6068030B605FF30A91747
:101A6C00AC17AB05AC050730AD01B201B301B40145
:101A7C00B500281C472D2B08B2072C08B33D2D08A8
:101A8C00B43DAA36A90CA80CAB35AC0DAD0DB50BFD
:101A9C003F2D0930B500281C592D2B08B2072C08F6
:101AAC00B33D2D08B43DAA36A90CA80CB436B30C22
:101ABC00B20CB50B512D3208A0003308A10034082C
:101ACC00A2003108A3003608A40027262008A8008D
:101ADC002108A9002208AA0008004608CC004708E3
:101AEC00CD004808CE0003104D0D4E0DD100490815
:101AFC00CC004A08CD004B08CE0003104D0D4E0D06
:101B0C00D00051080319962D5008510250080318A3
:101B1C009E2DCC005108CC0219304C02031C9D2D7B
:101B2C004908C6004A08C7004B08C80008005008FE
:101B3C0003190800510850020318AC2D5108CC00B1
:101B4C005008CC0219304C02031808000630CF00A4
:101B5C00C81BCF17CB1B4F17C717C801CA17CB0110
:101B6C00500851020318D12DC935CA0DCB0DD00325
:101B7C00500851060319CC2DCF034F080739031910
:101B8C00CC2DBA2DC836C70CC60CD10A510850063C
:101B9C000319EB2DC82D510850020318EB2DC63537
:101BAC00C70DC80DD103500851060319E72DCF03FB
:101BBC004F0807390319E72DD52DCB36CA0CC90CA4
:101BCC00D00A51085006031DE32DCF1FF62DFF3010
:101BDC00C606C706C806C60A0319C70A0319C80AE7
:101BEC004F1F012EFF30C906CA06CB06C90A0319BE
:101BFC00CA0A0319CB0ACF014608C9074708CA3DD0
:101C0C004808CB3DCB1F152EFF30C906CA06CB06A4
:101C1C00C90A0319CA0A0319CB0ACF01CF0A49080A
:101C2C00A0004A08A1004B08A2005108A3004F08CD
:101C3C00A40027262008C6002108C7002208C800D7
:101C4C000800230803192F2E220821042004031D49
:101C5C00372EA001A101A2010800A30AA236A10CF3
:101C6C00A00CFE3022050319452E332EA30AA00A20
:101C7C000319A10A0319A20AA236A10CA00CFF3069
:101C8C0022050319522E3C2E02302302031C542E23
:101C9C00A303A035A10DA20DA11F4A2E231CA11335
:101CAC00A3362308A700A601A5012508A004260831
:101CBC00A1042708A2042408031DA21708008726E4
:101CCC008E317C268E319D268E3172268E31782671
:101CDC008E31E7278E31A02E8030220098003330D1
:101CEC0099000800D2302A009500080070302100BD
:101CFC0099009A0198012200960121001A1B0800F4
:101D0C00832E22008C018E01333021008C00373061
:101D1C008E003F3023008E0017308C0024008C0185
:101D2C008E012100951725008C018E0108001630BC
:101D3C0097000800D6268E31A7268E31C4268E3108
:101D4C00752FB230860000308701840090308500FA
:101D5C0020302000A20022080319B82E12001E0009
:101D6C00A20BB42E2000A3012308833114238E313F
:101D7C000230A30A230203180800BA2EDC30A2009A
:101D8C00E530A10022082102031C08002208A00053
:101D9C002008083E8600870181100930A207C62E54
:101DAC00A5012508E0268E310230A50A250203186C
:101DBC000800D72EA400F02E24000E1023000E10C5
:101DCC0021000E10F82E24008E1023008E102100FE
:101DDC008E10F82E2408003A0319E22E013A03194A
:101DEC00E92E072F2000240808270930A00024081A
:101DFC0083314523DC3EA0002008083E8600870185
:101E0C0081100800A30002302302031808000930D7
:101E1C00A000230883314523E43E8600870101148A
:101E2C000800AC00AB0121001D082000A700210018
:101E3C001E082000A80021001F082000A9007527FB
:101E4C008E3100308B1B01302000AA002C08D427C7
:101E5C008E3120002C08860087010108EB002C082D
:101E6C008600453FEA00E301E4016C106B278E31DC
:101E7C00E900E301E401EC108B137B278E312A0C73
:101E8C00031C8B1303188B1764278E3121009D18AC
:101E9C004C2F20006C1C422F270821009D00200095
:101EAC00280821009E002000290821009F00200006
:101EBC00EC1C622FFA30AB002B0808006908A0005C
:101ECC00200803190800A003662F7C1C6F2FFC361A
:101EDC00722FB430FC36FC067C080F390800210048
:101EEC009D01A0309E009F01080021001C082000CD
:101EFC00A60021001B082000A5006C1808006A0829
:101F0C00031D972FCE2F21005B088A005A080A0068
:101F1C008F31AF2F210059088A0058080A008F31E1
:101F2C00AF2F6A080139A300A401240884000130F2
:101F3C0004020318AF2F80310435023E82002308BF
:101F4C008400023004020318AF2F88310435003EA0
:101F5C00820009302000A0006B08833145238E31AC
:101F6C00E13E8600870101086A060319CC2F6A1C22
:101F7C00C82F0430A301A40025082302A5002608BD
:101F8C00243BA6002508E3072608E43DEA030800E5
:101F9C002508E3072608E43D6C140800A000200A7D
:101FAC0086008701403F2100DA00413FDB00200022
:101FBC002008033E8600403F2100D800413FD90055
:101FCC000800FF3020009B009A0191102100911411
:101FDC0080302000A0000C30A100F8271C3020001D
:101FEC009C00080021082100A900200020082100E5
:101FFC00A8000800003400340034003400340034ED
:10200C000034003400340034003400340034003424
:10201C0064340334013401340034003400340034AB
:10202C000034003400340034003400340034003404
:04203C0064340334D1
:020000040001F9
:04000E00E4FFFFFF0D
:00000001FF
