:0A0000000128DC2FEB2DED2DFD2D66
:1002FC000800080001340800080084294B30422B08
:10030C00B721B02266228E291630210097000800F2
:10031C0021009D01D0309E009F010800BF21782252
:10032C00D0218A2104228629640080010131890BA5
:10033C009B2900344508F000700803190800F003ED
:10034C00A229F0002000111EA829700823009A0091
:10035C000800FD017D085724FD0A7D08031D0800D7
:10036C00B029F5017508C822F50A7508031D0800A7
:10037C00B8293200910192019301940195019601E3
:10038C000800FD017D08FA23003A031D0034FD0F1F
:10039C000134C8296030320099009B019D01063060
:1003AC009F009E010800491CDD29C936E029B430A4
:1003BC00C936C90649080F390800013400340A341B
:1003CC00003464340034E834033410342734F0003F
:1003DC007008031900347008083E86008701010874
:1003EC0001390800F200F10170087218F107F035BC
:1003FC00F2367208031DFA29710808000830230030
:10040C009F0080309D0024309E00A0309B00013066
:10041C009C0008002000CA01CA0AC721003A03192F
:10042C000800AF21662283212000CA010800F300D6
:10043C007308031D08000930F0007308F821693EA9
:10044C008600870101140800F0007008031D0034B9
:10045C00700EF0394D3E86000230870101060319FB
:10046C0001340034F3007308031D00340930F0002C
:10047C007308F821693E86008701010C01390800D8
:10048C00F11F08007009F2007109F300F20A031958
:10049C00F30A7208F0007308F1000800F0008B1FDB
:1004AC005B2A8B135E228B17080070085E220800F3
:1004BC00063E860087014108C03F4208C13F080044
:1004CC006130F200F10072087102031C080072081E
:1004DC00F0007008083E8600870181100930F20791
:1004EC006130682A22008C01053021008C003730E5
:1004FC0023008C0024008C0125008C013D00140885
:10050C00E039143894000800F6007608031D9A2A86
:10051C000930F0007608F821673E86008701403FDD
:10052C00F300413FF4000800F301F401080000342B
:10053C00003400340034003400340034003400340F
:10054C000034003400340034003464340334253473
:10055C00643400344B3086009D3087018400823037
:10056C0085001030F20072080319C02A12001E0018
:10057C00F20BBC2AF30173080323F30A7308031D5F
:10058C000800C12AF400D12A24000C1123000C11FC
:10059C0021000C11D62A7408003A0319CA2AE32A3E
:1005AC0074081D220930F0007408F821613EF00037
:1005BC007008083E8600870181100800AD30A0004D
:1005CC008230A1007D08A3007C08A2002F305227A6
:1005DC002F30B90039088600870101080319FD2A5C
:1005EC00390886000108A7212000B90AF02A2C300E
:1005FC00A7210D30A7210A30A729F000700EF03981
:10060C004B3EF100023E8600870181017108053ED8
:10061C0086000030C03FC13FC23FC33F71087A26FD
:10062C0071081C23710A860001087F290C3E860084
:10063C000030C03FC13F08007708780403193D2BF8
:10064C00FB01FB0AF81B2D2BF735F80D272B78082F
:10065C007A02031D332B77087902031C392B770898
:10066C00F9027808FA3BF836F70CFB0B2D2B7A08BD
:10067C00F8007908F7000800F200023E860002300C
:10068C0087010106031D080072085E230318810A06
:10069C0072080A3E8600870116000104031D08003B
:1006AC0072080A3E8600FF308701C03FC13F080038
:1006BC000A3E86000130810741310800F401F50142
:1006CC00700871040319842BF601F60AF11B712BC7
:1006DC00F035F10D6B2BF435F50D71087302031D1C
:1006EC00792B70087202031C802B7008F2027108BF
:1006FC00F33B7414F136F00CF60B712B7508F1000A
:10070C007408F000080022000C15210009309D002F
:10071C000330890B8F2B000071309D0022000C11CF
:10072C0021008C308400003085000C3086000130B4
:10073C008700093000159D00811400320032000042
:10074C0021009D140032000022000C15001108003D
:10075C0022000C11210009309D000330890BB42BB1
:10076C00000071309D0022000C1521008C3084009B
:10077C00003085000C3086000130870009300015F0
:10078C009D00811000320032000021009D140032C7
:10079C00000022000C1100110800FB007B0A8600EF
:1007AC00870101088A227308F7007408F800F90120
:1007BC00FA017B08053E860087017708C03F780860
:1007CC00C13F7908C23F7A08C33F7B08053E8600CB
:1007DC00043081354131810D4131810D4131810D23
:1007EC007D31890BEF2B0800A6000930F00026089C
:1007FC00F821613E2000A8000625A700122C28082D
:10080C0054222808F0007008083E860087018114E5
:10081C002608F0008221202C2708003A0319052C09
:10082C00FD3A0319202C033A0319202C013A031921
:10083C00202C202C270808007C080A3E8600870103
:10084C00403FA000413FA10003302102E8300319D2
:10085C0020027C08031C3B2C8600010803237C0827
:10086C00860087010108F0007E295124A0007C0835
:10087C000E3E86000137803AA002031808007C085F
:10088C00023E86008101810A7C087A267C0886005B
:10089C000108F0007E29093E860087010108803A94
:1008AC0008002000A500250EF0394B3EA600892437
:1008BC003822003A03190800200089248021003ACC
:1008CC000319080026088E2420002608E92626088D
:1008DC00023E8600033087010102031C792C260896
:1008EC0086000108032320002608FC002608023E8F
:1008FC008600870101355B3E8600413F8A00403F00
:10090C000A0084310800260A8600870101080800C5
:10091C00F9008B1F972C8B139C248A22B5248B17E0
:10092C00080079089C248A22B5240800033E86001E
:10093C008701403FF700413FF800F836F70CF836D6
:10094C00F70C7908033E860077088102413178085C
:10095C00813B7F31790A8600870101080800730802
:10096C00F7007408F800F836F70CF836F70C79082D
:10097C00033E860087017708810741317808813D65
:10098C007F310800FC00FB0121001D08F7001E0848
:10099C00F8001F08F9008E2100308B1B0130FA0083
:1009AC007C0881217C088600870101082000C70093
:1009BC007C088600453FC600C101C2014810D92100
:1009CC00C500C101C201C8108B13DF257A0C031CB2
:1009DC008B1303188B17A02121009D18F22C2000DB
:1009EC00481CEA2C770821009D0078089E007908A5
:1009FC009F002000C81C042DFA30FB007B08080067
:100A0C00A5000530A4002508ED21003A0319003497
:100A1C00122DA40B122DFC342508C824003A031DFA
:100A2C000F2D4208F1004108F0002508063E860013
:100A3C008701403FA000413FA1002008F00221089F
:100A4C00F13B46222508053E860087010108A200DD
:100A5C00A301A235A30DA235A30D71082302031D1A
:100A6C00392D7008220225080318432DF000700858
:100A7C00083E8600870101150034F0007008083E1E
:100A8C008600870101110034F6008B1F512D8B134A
:100A9C0054258B170800760854250800053E86005F
:100AAC008701403FF000413FF100423FF200433FDD
:100ABC00F3000430F336F20CF10CF00C890B602DC2
:100ACC007608053E86008701700881024131710865
:100ADC00813B41317208813B41317308813B7D314F
:100AEC007608033E86008701403FF000413FF1004D
:100AFC007008F2007108F300F401F5017608053E68
:100B0C0086007208810741317308813D41317408B8
:100B1C00813D41317508813D0800D925CD2509302D
:100B2C00031920027C0803189D2DD3239E2D4A25E2
:100B3C007C080A3ED3250318810AD9252000CD252F
:100B4C00103003192002031C08007C08053E8600A7
:100B5C00403FA000413FA100423FA200433FA30001
:100B6C000430A336A20CA10CA00C890BB72D7C0869
:100B7C00033E860087012008C03F2108C13F7C0846
:100B8C00023E86008101810A7C087A260800A000BA
:100B9C00413FA1000030210208008600013087018E
:100BAC008107413108007C080A3E86008701403FDE
:100BBC00080021001C08F6001B08F500200048184E
:100BCC0008004608031DEF2D252E8923072EAE2382
:100BDC00072E46080139F300F40174088400013033
:100BEC0004020318072E80310430040782007308B6
:100BFC008400023004020318072E803102300407EF
:100C0C0082000930F00020004708F821663E86007B
:100C1C0087010108200046060319232E461C1F2EAF
:100C2C000430F301F40075087302F5007608743B88
:100C3C00F6007508C1077608C23DC60308007508A2
:100C4C00C1077608C23D481408007C0851248A3E2E
:100C5C007C080318452E5E230318810A7C080A3E83
:100C6C0086008701403F8026031920027C08031C64
:100C7C00672E7A267C08860001080323662E0E3E1A
:100C8C00860087010108803AA0007C08093E860096
:100C9C000108803AA0027C080318602E023E8600F0
:100CAC00023081007C087A267C0886000108F0005E
:100CBC007E21662E0A3E860000308701C03FC13F70
:100CCC007C080C3ED3250318810A7C080C3E860058
:100CDC008701403F2000802603192002031C0800D6
:100CEC007C081C237C084A2D0A3E86000030C03F3D
:100CFC00C13F0800A000413FA10000302102213477
:100D0C009421102200308A2274082000BC00730841
:100D1C00BB0000302A22003A0319A12E4308031D00
:100D2C00A22EC301C30A4408031D9F2EC401C40A8A
:100D3C00A22EC401A22EC301440BB72E0530BF074F
:100D4C000318C00A4008803ABA0081303A02031DE9
:100D5C00B12E00303F02031CBF2EFF302000BF001D
:100D6C00BE2EFC30BF07031CC003C01FBF2EBF012B
:100D7C00C0012000BD01BE0120003E08803ABA002F
:100D8C004008803A3A02031DCD2E3F083D0203185D
:100D9C00D22E20008C16D42E20008C12BD0A0319E2
:100DAC00BE0A3E08803ABA0080303A02031DE02E9B
:100DBC00FF303D02031CC22E20003C08FD003B0806
:100DCC00FC00E422872EA400053E86008701403FEC
:100DDC00F000413FF100423FF200433FF30004308A
:100DEC00F336F20CF10CF00C890BF62E2408033EB2
:100DFC0086008701403FF400413FF5007408F6007F
:100E0C007508F700F801F9017008F6027108F73B54
:100E1C007208F83B7308F93B7908A3007808A20024
:100E2C007708A1007608A00024080F3E8600010A6E
:100E3C00232FA337A20CA10CA00C890B1F2FA31BD3
:100E4C00392F2308031D342F2208031D342F2108AA
:100E5C00031D342F80302002031C392F7F30A0005B
:100E6C00A101A201A301A31F4B2F80302002FF3050
:100E7C00213BFF30223BFF30233B03184B2FFF302D
:100E8C00A300A200A1008030A0002408093E860027
:100E9C008701200881000800AD002230A800BC2783
:100EAC002E080319B72F25302E0603195F2FD527CF
:100EBC00552FA901BC27003A0319B72F643A03191F
:100ECC006B2F0D3A03196B2F552F280886008701BD
:100EDC00403FAB00413FAC00A80AA80AAC1F7D2FD5
:100EEC000330A904AB09AC09AB0A0319AC0AAE0177
:100EFC00AE0A2E08C927A600013FA7002C02031D2D
:100F0C00892F26082B02031C902F0530AE0A2E06C3
:100F1C00031D7F2F2908033903199A2F2D088600EA
:100F2C002D3087018100AD0A2E08AA00B32F0A309C
:100F3C00F700F8012A08C927F000013FF1002C083E
:100F4C00F3002B08F20064237108FA007008F90012
:100F5C0022237708303EAE00D527AA032A0F9D2FF7
:100F6C00552F2D0886008701810108002108A50056
:100F7C002008A400A00A0319A10A840025088500F2
:100F8C000008AE000800A400E330A501A435A50DAF
:100F9C00240784008130253D8500003F08002D0882
:100FAC00860087012E088100AD0A08009330DB0013
:100FBC000530DC002B30DD000630DE002230DF0097
:100FCC000430E0000030E1008930E2000330E3003F
:100FDC00AE30E4000330E5002030E6000030E700DE
:100FEC00E800E9003F308400003085001C309A2175
:040FFC002000862E1D
:020000040001F9
:08000E00ECFFF3FFFFFFFFFF11
:00000001FF
