:04000000803118280B
:100008007E14803120007F08F9000B1F132821007F
:10001800911C13282000911C132886316626790824
:100028002000FF007E10090080311A288A308400E1
:10003800863085005A308600003087000A308631C5
:100048009C2680317230840085308500A03086007F
:10005800003087002C3086319C268031F001F10178
:10006800F201F301F40120308400003085002E30C5
:100078008631A2268031CC308400003085002030C3
:100088008631A2267E10200083310B2B00340034E9
:1000980000340034003400340034013401340134B5
:1000A800023402340334033404340434053405348C
:1000B800063407340734083409340A340B340C3452
:1000C8000D340E340F341034113412341334143404
:1000D80015341634183419341A341C341D341E34AB
:1000E80020342134223424342534273428342A3443
:1000F8002B342D342E3430343134333434343634D4
:10010800373439343A343C343E343F344134423461
:1001180044344634473449344A344C344D344F34EB
:1001280050345234533455345634583459345B347B
:100138005C345E345F34603462346334643466340F
:10014800673468346A346B346C346D346E346F34AD
:10015800703471347234733474347534763477345B
:100168007834793479347A347B347B347C347C3415
:100178007D347D347E347E347F347F347F348034E4
:1001880080348034803480348034803480348034C7
:10019800803480348034803480347F347F347F34BA
:1001A8007E347E347D347D347C347C347B347B34C3
:1001B8007A347934793478347734763475347434DD
:1001C80073347234713470346F346E346D346C340B
:1001D8006B346A3468346734663464346334623444
:1001E80060345F345E345C345B345934583456348C
:1001F80055345334523450344F344D344C344A34DB
:100208004934473446344434423441343F343E342C
:100218003C343A3439343734363434343334313482
:1002280030342E342D342B342A34283427342534D2
:1002380024342234213420341E341D341C341A341E
:100248001934183416341534143413341234113460
:1002580010340F340E340D340C340B340A34093492
:1002680008340734073406340534053404340434B8
:1002780003340334023402340134013401340034C9
:1002880000340034003400340034003400340034C6
:10029800003401340134023403340434053407349F
:1002A800083409340B340D340E3410341234143439
:1002B8001534173419341A341C341D341F342034BF
:1002C8002134223423342434243425342534253469
:1002D8002534253425342434243423342234213459
:1002E80020341F341E341D341C341A341934183485
:1002F80017341634153414341334123411341034BA
:10030800103410340F340F340F34103410341134C7
:1003180011341234133414341634173418341A348C
:100328001C341E341F342134233425342734293413
:100338002B342D342F34313432343434353437348B
:10034800383439343A343B343B343C343C343C3430
:100358003C343C343B343B343A3439343934383423
:100368003634353434343334313430342E342D3457
:100378002B342A342934273426342534243423349E
:1003880022342134213420342034203420342034C1
:10039800203421342134223423342434253426349F
:1003A800273429342A342B342D342E343034313444
:1003B80033343434353436343834393439343A34DF
:1003C8003B343B343C343C343C343C343C343B34A8
:1003D8003B343A34393438343734353434343234BD
:1003E80031342F342D342B34293427342534233415
:1003F80021341F341E341C341A341834173416347C
:1004080014341334123411341134103410340F34BA
:100418000F340F34103410341034113412341334B0
:100428001434153416341734183419341A341C3467
:100438001D341E341F342034213422342334243410
:1004480024342534253425342534253425342434DE
:10045800243423342234213420341F341D341C34F2
:100468001A341934173415341434123410340E3441
:100478000D340B3409340834073405340434033498
:100488000234013401340034003400340130F00700
:100498000030F13D700871040319542AF001F1018C
:1004A8007008743E860087010103031D952A703584
:1004B8002C3E8600870116000104031D8B2A703527
:1004C8002E3E86008701403FF600413FF70000308E
:1004D80077028130031976020318852A70352E3E7B
:1004E800860087010130810741310318810A703580
:1004F8002C3E8600870120002408C03F2508C13F04
:10050800952A7008743E860087018101952A703506
:100518002C3E860087010130810241310030813B49
:100528007F317008493E860087010108F60070088F
:10053800473E860087017608810770352A3E860087
:1005480087017008483E8400850100088107413111
:100558000318810A7008473E8600870170352A3ED5
:1005680084008501003FF600013FF7007708010786
:10057800F8007008463E86008701780881007008F8
:10058800463E8600870170352E3E84008501003F77
:10059800F600013FF700B730760784008330773DD7
:1005A800850000080107F80070084A3E86008701A8
:1005B8007808810070084A3E8600870101084A3E93
:1005C800840081300318013E85000008F600700899
:1005D800463E8600870101084A3E840081300318A0
:1005E800013E850000087607F700F801F80D703520
:1005F800323E860087017708C03F7808C13F7035D2
:10060800323E8600870101088631BA260800853106
:10061800F52583318B170B172200AC01AD012D088E
:10062800803A2000D80080305802031D1E2B01306C
:1006380022002C020318512B22002C08743E86003D
:10064800870181012C352E3E860087010030C03F8E
:10065800C13F2C352C3E860087010030C03FC13F8A
:100668002C08473E8600870181012C352A3E8600EA
:1006780087010030C03FC13F0130AC070030AD3DBD
:100688002D08803A2000D80080305802031D4F2BD7
:10069800013022002C02031C202B14302000A4005F
:1006A8000030A5002200A801A901A001A101A20112
:1006B800A301A401A5011430A6000030A700220060
:1006C800AA01AB012B08803A2000D80080305802DC
:1006D800031D712B013022002A020318632B22000C
:1006E8002A08743E860087010108031DB12B0130DA
:1006F800A8070030A93DA91F832BA801A901290833
:10070800803A2000D80022002708803A20005802AA
:10071800031D912B220026082802031C962B220079
:10072800A801A90122002808A03E86008701010827
:100738002000D8005808CE0022002A088431CA2494
:10074800833105302000D9000F30D800F130890BF3
:10075800AB2BD80BAB2BD90BAB2B01302200AA0744
:100768000030AB3D662B00340D34183422342C3461
:1007780034343C34423448344E34533457345B3484
:100788005F346234653467346A346C346E34703480
:100798007134723474347534763477347834783408
:1007A80079347A347A347B347B347B347C347C34CB
:1007B8007C347D347D347D347D347D347E347E34A8
:1007C8007E347E347E347E347E347E347E347E3491
:1007D8007F347F347F347F347F347F347F347F3479
:1007E8007F347F347F347F347F347F347F347F3469
:1007F8007F347F347F347F347F347F347F347F3459
:100808007F347F347F347F347F347F347F347F3448
:100818007F347F347F347F347F347F347F347F3438
:100828007F347F347F347F347F347F347F347F3428
:100838007F347F347F347F347F347F347F347F3418
:100848007F347F347F347F347F347F347F347F3408
:100858007F347F347F347F347F347F347F347F34F8
:100868007F347F347F347F34F43430347034B3349D
:10087800FB3447349734EC344634A6340B3476349E
:10088800E7346034DF346634F5348D342D34D734AE
:100898008C344B341534EB34CE34BF34BE34CC34C2
:1008A800EA3419345A34AE34173495342934D634EA
:1008B8009C347D347B349734D4343234B4345C344F
:1008C8002D3429345234AC343834FA34F6342E34D6
:1008D800A73463346834B8345A345234A43457349F
:1008E8007034F434EB345C344D34C534CF34703464
:1008F800B434A3344834AE34DF3403340434043419
:100908000434043405340534053406340634073415
:100918000734073408340834093409340A340B34EA
:100928000B340C340D340E340E340F3410341134AF
:100938001234133415341634173419341A341C3459
:100948001D341F3421342334253427342A342C34DD
:100958002F343234353438343B343F34423446341F
:100968004B344F34543459345E3464346A347034FC
:1009780077347E3485348D3496349F34A834B23439
:10098800BD34C834D434E134EE34FC342000D00013
:100998005008743E860087010108031D08005008AE
:1009A800743E860087018101810A4E08813E8400D9
:1009B80084300318013E85000008CF005008493EE6
:1009C800860087014F0881004E08383E8400843035
:1009D8000318013E85000008CF005008483E8600F5
:1009E80087014F08810050352E3E86008701003070
:1009F800C03FC13F50352C3E860087012408C03FC8
:100A08002508C13F50352A3E860087010030C03F87
:100A1800C13F5008473E8600870181010800200039
:100A2800D0005008CE000330CE35FF3E031D182DF0
:100A38004E35CC3ECF004F08D1005108023E86000B
:100A4800870181015108053E860087010030C03FBB
:100A58000030C13FC23FC33F51080A3E86008701AC
:100A68000030C03FC13F51080C3E8600870100306E
:100A7800C03FC13F510A8600870101088631C72659
:100A880008002000D500562D24000E1023000E105B
:100A980021000E105F2D24008E1023008E102100DF
:100AA8008E105F2D20005508003A0319482D013A91
:100AB80003194F2D712D2000550886311F268531C9
:100AC80009302000D4005408CE0055088631442649
:100AD8008531BA3E8631942608000800033405346F
:100AE80008340A340C340F341134143416341834DE
:100AF8001B341D34203422342434273429342C3434
:100B08002E343034003400340034003400340034DF
:100B1800003400340034003400342034003400340D
:100B280000340134003400340034003420340034FC
:100B380000340034CC3086008701BF308400853013
:100B4800850020302000D20052080319AF2D120072
:100B58001E00D20BAB2D2000D30102305302031824
:100B68000800530885311325853101302000D20053
:100B78005208D307B12D0034003400340034003457
:100B880000340034003400340034003400340034BD
:100B98000034643403340134013400340034003444
:100BA800003400340034003400340034003400349D
:100BB80000346434033422008C018E013330210068
:100BC8008C0037308E003F3023008E0017308C00A9
:100BD80024008C018E012100951725008C018E01BF
:100BE80008008531DF25853186317F2685318631BC
:100BF800BF2685318631B42685318631C3268531B5
:100C0800863132268531863173260800BA302000B5
:100C1800CF004F08D000C330CF0050084F02031C4C
:100C28000800500886319426863109302000CF000C
:100C38004F08D0070F2E2000D300023053020318AC
:100C480008000930D2005208CE00530886314426E5
:100C5800083EBA3E8600870101140800FF302000D4
:100C68009B009A019110210091144A302000CE0077
:100C78000230CF008631A826043020009C000800EE
:100C88002000D100D001511C4D2E4E08CF004F0836
:100C9800D0070310CE0D0310D10C5108031D472EA9
:100CA800500808002000D701023057020318080036
:100CB800570885314525863101302000D600560871
:100CC800D707582E2000200821040319702E210868
:100CD8008A0020080A008631200091100800863119
:100CE8005626863185319E25863186310A268631FB
:100CF8008631AE2608007030210099009A019801CB
:100D08002200960121001A1B0800862E00340034A8
:100D1800003400340034003400340034003400342B
:100D28002000CE004E08083E86008701811008008A
:100D3800FE0012001E00FE0B9D2E00346400800190
:100D48000131890BA32E003420004F08A1004E0862
:100D5800A000080021009D01A0309E009F0108000E
:100D6800803022009800333099000800F50075089B
:100D78002200990008001630210097000800D230A0
:080D88002A0095000800080094
:020000040001F9
:04000E00E4FFFFFF0D
:00000001FF
