:04000000803118280B
:100008007E14803120007F08F9000B1F132821007F
:10001800911C13282000911C132886317C2679080E
:100028002000FF007E10090080311A28A0308400CB
:10003800863085005B308600003087000A308631C4
:10004800B2268031C530840085308500D2308600E4
:100058000030870018308631B2268031DD308400C8
:1000680085308500203086000130870018308631C1
:10007800B2268031F001F101F201F301F4012030E0
:100088008400003085002F308631B8268031A030BA
:1000980084000030850032308631B8267E1020007A
:1000A80083311A2B00340034003400340034003417
:1000B800003401340134013402340234033403348B
:1000C800043404340534053406340734073408345A
:1000D80009340A340B340C340D340E340F34103414
:1000E80011341234133414341534163418341934C2
:1000F8001A341C341D341E34203421342234243460
:100108002534273428342A342B342D342E343034F3
:100118003134333434343634373439343A343C3483
:100128003E343F344134423444344634473449340D
:100138004A344C344D344F3450345234533455349B
:100148005634583459345B345C345E345F3460342C
:100158006234633464346634673468346A346B34C4
:100168006C346D346E346F3470347134723473346B
:1001780074347534763477347834793479347A341D
:100188007B347B347C347C347D347D347E347E34E3
:100198007F347F347F3480348034803480348034BA
:1001A80080348034803480348034803480348034A7
:1001B80080347F347F347F347E347E347D347D34A4
:1001C8007C347C347B347B347A34793479347834B5
:1001D80077347634753474347334723471347034DB
:1001E8006F346E346D346C346B346A34683467340D
:1001F800663464346334623460345F345E345C344F
:100208005B3459345834563455345334523450349A
:100218004F344D344C344A344934473446344434EA
:10022800423441343F343E343C343A343934373440
:10023800363434343334313430342E342D342B3492
:100248002A342834273425342434223421342034E1
:100258001E341D341C341A34193418341634153429
:10026800143413341234113410340F340E340D3462
:100278000C340B340A340934083407340734063490
:1002880005340534043404340334033402340234AA
:1002980001340134013400340034003400340034B3
:1002A80000340034003400340034013401340234A2
:1002B8000334043405340734083409340B340D345A
:1002C8000E341034123414341534173419341A34E3
:1002D8001C341D341F342034213422342334243474
:1002E8002434253425342534253425342534243440
:1002F800243423342234213420341F341E341D3452
:100308001C341A3419341834173416341534143488
:100318001334123411341034103410340F340F34B1
:100328000F3410341034113411341234133414349B
:100338001634173418341A341C341E341F3421343C
:1003480023342534273429342B342D342F343134B5
:100358003234343435343734383439343A343B343D
:100368003B343C343C343C343C343C343B343B3408
:100378003A3439343934383436343534343433341F
:10038800313430342E342D342B342A342934273464
:10039800263425342434233422342134213420349F
:1003A80020342034203420342034213421342234A1
:1003B8002334243425342634273429342A342B345E
:1003C8002D342E34303431343334343435343634F7
:1003D8003834393439343A343B343B343C343C34A3
:1003E8003C343C343C343B343B343A343934383490
:1003F800373435343434323431342F342D342B34CB
:10040800293427342534233421341F341E341C3432
:100418001A3418341734163414341334123411348B
:100428001134103410340F340F340F3410341034A6
:100438001034113412341334143415341634173478
:10044800183419341A341C341D341E341F34203423
:1004580021342234233424342434253425342534D7
:1004680025342534253424342434233422342134C7
:1004780020341F341D341C341A34193417341534FD
:100488001434123410340E340D340B340934083457
:10049800073405340434033402340134013400349D
:1004A800003400340130F0070030F13D00307102B3
:1004B800023003197002031C632AF001F10170086D
:1004C8003C3E860087010103031DA42A7035243EA3
:1004D8008600870116000104031D9A2A7035283EFC
:1004E80086008701403FF600413FF7000030770261
:1004F8008130031976020318942A7035283E860045
:1005080087010130810741310318810A7035243E83
:100518008600870120003008C03F3108C13FA42A67
:1005280070083C3E860087018101A42A7035243E6C
:10053800860087010130810241310030813B7F31E3
:100548007008383E860087010108F6007008343EBE
:1005580086008701760881077035203E860087016E
:100568007008363E84008501000881074131031870
:10057800810A7008343E860087017035203E840069
:100588008501003FF600013FF70077080107F800F2
:100598007008323E86008701780881007008323E74
:1005A800860087017035283E84008501003FF600EB
:1005B800013FF700C730760784008330773D850018
:1005C80000080107F80070083A3E8600870178089D
:1005D800810070083A3E860087010108563E840073
:1005E80081300318013E85000008F6007008323E8D
:1005F800860087010108563E840081300318013EB9
:10060800850000087607F700F801F80D7035A43E5C
:10061800860087017708C03F7808C13F7035A43E3F
:100628008600870101088631D026080086310B260E
:1006380083318B170B172200C401C5014508803A86
:100648002000D90080305902031D2D2B02302200D2
:1006580044020318602B220044083C3E86008701B0
:1006680081014435283E860087010030C03FC13FE4
:100678004435243E860087010030C03FC13F44080E
:10068800343E8600870181014435203E860087017B
:100698000030C03FC13F0130C4070030C53D4508A8
:1006A800803A2000D90080305902031D5E2B0230A9
:1006B80022004402031C2F2B14302000B00000300D
:1006C800B1002200C001C101B801B901BA01BB01E2
:1006D800BC01BD011830BE000030BF002200C201BD
:1006E800C3014308803A2000D90080305902031D15
:1006F800802B0230220042020318722B220042088B
:100708003C3E860087010108031DC12B0130C0074C
:100718000030C13DC11F922BC001C1014108803A80
:100728002000D90022003F08803A20005902031D0A
:10073800A02B22003E084002031CA52B2200C0016A
:10074800C10122004008203E8600013087000108D0
:100758002000D9005908CF00220042088431DC2447
:10076800833105302000DA000F30D900F130890BD1
:10077800BB2BD90BBB2BDA0BBB2B01302200C207DA
:100788000030C33D752B00340D34183422342C341A
:1007980034343C34423448344E34533457345B3464
:1007A8005F346234653467346A346C346E34703460
:1007B80071347234743475347634773478347834E8
:1007C80079347A347A347B347B347B347C347C34AB
:1007D8007C347D347D347D347D347D347E347E3488
:1007E8007E347E347E347E347E347E347E347E3471
:1007F8007F347F347F347F347F347F347F347F3459
:100808007F347F347F347F347F347F347F347F3448
:100818007F347F347F347F347F347F347F347F3438
:100828007F347F347F347F347F347F347F347F3428
:100838007F347F347F347F347F347F347F347F3418
:100848007F347F347F347F347F347F347F347F3408
:100858007F347F347F347F347F347F347F347F34F8
:100868007F347F347F347F347F347F347F347F34E8
:100878007F347F347F347F347F347F347F347F34D8
:100888007F347F347F347F34FA34183438345A3420
:100898007E34A434CC34F634233453348634BB3415
:1008A800F43430347034B334FB3447349734EC3494
:1008B8004634A6340B347634E7346034DF34663497
:1008C800F5348D342D34D7348C344B341534EB3423
:1008D800CE34BF34BE34CC34EA3419345A34AE344E
:1008E800173495342934D6349C347D347B3497348A
:1008F800D4343234B4345C342D3429345234AC34E6
:100908003834FA34F6342E34A73463346834B834BF
:100918005A345234A43457347034F4340134023421
:10092800023402340234023402340234033403340D
:1009380003340334033404340434043404340534F1
:1009480005340534063406340734073407340834CC
:100958000834093409340A340B340B340C340D349C
:100968000E340E340F341034113412341334153459
:100978001634173419341A341C341D341F342134F6
:100988002334253427342A342C342F343234353464
:1009980038343B343F34423446344B344F34543487
:1009A80059345E3464346A34703477347E34853430
:1009B8002000D10051083C3E860087010108031D34
:1009C800080051083C3E860087018101810A4F08D2
:1009D800923E840084300318013E85000008D00050
:1009E8005108383E86008701500881004F08483E6C
:1009F800840084300318013E85000008D0005108A7
:100A0800363E86008701500881005135283E860011
:100A180087010030C03FC13F5135243E8600870121
:100A28003008C03F3108C13F5135203E860087015C
:100A38000030C03FC13F5108343E86008701810124
:100A480008002000D1005108CF000330CF35FF3E09
:100A5800031D2A2D4F35B23ED0005008D20052084F
:100A6800023E8600870181015208053E8600870103
:100A78000030C03F0030C13FC23FC33F52080A3E6A
:100A8800860087010030C03FC13F52080C3E8600F7
:100A980087010030C03FC13F520A86008701010824
:100AA8008631DD2608002000D600682D24000E10AF
:100AB80023000E1021000E10712D24008E1023002B
:100AC8008E1021008E10712D20005608003A03194F
:100AD8005A2D013A0319612D832D200056088631BD
:100AE8003526853109302000D5005508CF00560835
:100AF80086315A268531D83E8631AA260800080054
:100B0800B23086008701A53084008530850020300A
:100B18002000D30053080319952D12001E00D30B93
:100B2800912D2000D4010230540203180800540803
:100B380085312525853101302000D3005308D4079D
:100B4800972D00340034003400340034003400346D
:100B58000034003400340034003400340034643489
:100B680003340134013400340034003400340034D8
:100B78000034003400340034003400340034643469
:100B880003340034003400340034003400340034BA
:100B9800003400340034003420340034003400348D
:100BA800013400340034003400342034003400347C
:100BB800003400340334053408340A340C340F3458
:100BC80011341434163418341B341D3420342234B0
:100BD8002434273429342C342E3430343334353407
:100BE800383422008C018E01333021008C003730DC
:100BF8008E003F3023008E0017308C0024008C01BB
:100C08008E012100951725008C018E010800853181
:100C1800F52586318631952686318631D526863169
:100C28008631CA2686318631D926863186314826CC
:100C38008631863189260800D8302000D000500837
:100C4800D100E130D00051085002031C08005108BF
:100C58008631AA26863109302000D0005008D107F5
:100C6800252E2000D4000230540203180800093051
:100C7800D3005308CF00540886315A26083ED83E80
:100C88008600870101140800FF3020009B009A01AC
:100C980091102100911456302000CF000230D0006E
:100CA8008631BE26043020009C0008002000D200B7
:100CB800D101521C632E4F08D0005008D1070310F1
:100CC800CF0D0310D20C5208031D5D2E51080800E9
:100CD8002000D8010230580203180800580885314E
:100CE8005725863101302000D7005708D8076E2EC7
:100CF80020002C082D040319862E2D088A002C08A4
:100D08000A00863120009110080086316C26863151
:100D18008531842586318631202686318631C42660
:100D280008007030210099009A019801220096016C
:100D380021001A1B08009C2E0034003400340034B3
:100D48000034003400340034003400342000CF0074
:100D58004F08083E8600870181100800FE00120037
:100D68001E00FE0BB32E0034640080010131890B94
:100D7800B92E003420005008AD004F08AC00080020
:100D880021009D01A0309E009F01080080302200B4
:100D98009800333099000800F50075082200990082
:100DA80008001630210097000800D2302A0095006C
:040DB8000800080027
:020000040001F9
:04000E00E4FFFFFF0D
:00000001FF
